{
  "_format": "hh-sol-artifact-1",
  "contractName": "Gashapon_V1",
  "sourceName": "contracts/gashapon_v1.sol",
  "abi": [
    {
      "inputs": [],
      "stateMutability": "nonpayable",
      "type": "constructor"
    },
    {
      "anonymous": false,
      "inputs": [
        {
          "indexed": true,
          "internalType": "address",
          "name": "owner",
          "type": "address"
        },
        {
          "indexed": true,
          "internalType": "address",
          "name": "approved",
          "type": "address"
        },
        {
          "indexed": true,
          "internalType": "uint256",
          "name": "tokenId",
          "type": "uint256"
        }
      ],
      "name": "Approval",
      "type": "event"
    },
    {
      "anonymous": false,
      "inputs": [
        {
          "indexed": true,
          "internalType": "address",
          "name": "owner",
          "type": "address"
        },
        {
          "indexed": true,
          "internalType": "address",
          "name": "operator",
          "type": "address"
        },
        {
          "indexed": false,
          "internalType": "bool",
          "name": "approved",
          "type": "bool"
        }
      ],
      "name": "ApprovalForAll",
      "type": "event"
    },
    {
      "anonymous": false,
      "inputs": [
        {
          "indexed": true,
          "internalType": "address",
          "name": "from",
          "type": "address"
        },
        {
          "indexed": true,
          "internalType": "address",
          "name": "to",
          "type": "address"
        },
        {
          "indexed": true,
          "internalType": "uint256",
          "name": "tokenId",
          "type": "uint256"
        }
      ],
      "name": "Transfer",
      "type": "event"
    },
    {
      "inputs": [
        {
          "internalType": "address",
          "name": "to",
          "type": "address"
        },
        {
          "internalType": "uint256",
          "name": "tokenId",
          "type": "uint256"
        }
      ],
      "name": "approve",
      "outputs": [],
      "stateMutability": "nonpayable",
      "type": "function"
    },
    {
      "inputs": [
        {
          "internalType": "address",
          "name": "owner",
          "type": "address"
        }
      ],
      "name": "balanceOf",
      "outputs": [
        {
          "internalType": "uint256",
          "name": "",
          "type": "uint256"
        }
      ],
      "stateMutability": "view",
      "type": "function"
    },
    {
      "inputs": [
        {
          "internalType": "string",
          "name": "tokenURI",
          "type": "string"
        },
        {
          "internalType": "uint256",
          "name": "price",
          "type": "uint256"
        }
      ],
      "name": "createToken",
      "outputs": [
        {
          "internalType": "uint256",
          "name": "",
          "type": "uint256"
        }
      ],
      "stateMutability": "payable",
      "type": "function"
    },
    {
      "inputs": [
        {
          "internalType": "uint256",
          "name": "tokenId",
          "type": "uint256"
        }
      ],
      "name": "executeSale",
      "outputs": [],
      "stateMutability": "payable",
      "type": "function"
    },
    {
      "inputs": [],
      "name": "getAllNFTs",
      "outputs": [
        {
          "components": [
            {
              "internalType": "uint256",
              "name": "tokenId",
              "type": "uint256"
            },
            {
              "internalType": "address payable",
              "name": "owner",
              "type": "address"
            },
            {
              "internalType": "address payable",
              "name": "seller",
              "type": "address"
            },
            {
              "internalType": "uint256",
              "name": "price",
              "type": "uint256"
            },
            {
              "internalType": "bool",
              "name": "currentlyListed",
              "type": "bool"
            }
          ],
          "internalType": "struct Gashapon_V1.ListedToken[]",
          "name": "",
          "type": "tuple[]"
        }
      ],
      "stateMutability": "view",
      "type": "function"
    },
    {
      "inputs": [
        {
          "internalType": "uint256",
          "name": "tokenId",
          "type": "uint256"
        }
      ],
      "name": "getApproved",
      "outputs": [
        {
          "internalType": "address",
          "name": "",
          "type": "address"
        }
      ],
      "stateMutability": "view",
      "type": "function"
    },
    {
      "inputs": [],
      "name": "getCurrentToken",
      "outputs": [
        {
          "internalType": "uint256",
          "name": "",
          "type": "uint256"
        }
      ],
      "stateMutability": "view",
      "type": "function"
    },
    {
      "inputs": [],
      "name": "getLatestIdToListedToken",
      "outputs": [
        {
          "components": [
            {
              "internalType": "uint256",
              "name": "tokenId",
              "type": "uint256"
            },
            {
              "internalType": "address payable",
              "name": "owner",
              "type": "address"
            },
            {
              "internalType": "address payable",
              "name": "seller",
              "type": "address"
            },
            {
              "internalType": "uint256",
              "name": "price",
              "type": "uint256"
            },
            {
              "internalType": "bool",
              "name": "currentlyListed",
              "type": "bool"
            }
          ],
          "internalType": "struct Gashapon_V1.ListedToken",
          "name": "",
          "type": "tuple"
        }
      ],
      "stateMutability": "view",
      "type": "function"
    },
    {
      "inputs": [],
      "name": "getListPrice",
      "outputs": [
        {
          "internalType": "uint256",
          "name": "",
          "type": "uint256"
        }
      ],
      "stateMutability": "view",
      "type": "function"
    },
    {
      "inputs": [
        {
          "internalType": "uint256",
          "name": "tokenId",
          "type": "uint256"
        }
      ],
      "name": "getListedForTokenId",
      "outputs": [
        {
          "components": [
            {
              "internalType": "uint256",
              "name": "tokenId",
              "type": "uint256"
            },
            {
              "internalType": "address payable",
              "name": "owner",
              "type": "address"
            },
            {
              "internalType": "address payable",
              "name": "seller",
              "type": "address"
            },
            {
              "internalType": "uint256",
              "name": "price",
              "type": "uint256"
            },
            {
              "internalType": "bool",
              "name": "currentlyListed",
              "type": "bool"
            }
          ],
          "internalType": "struct Gashapon_V1.ListedToken",
          "name": "",
          "type": "tuple"
        }
      ],
      "stateMutability": "view",
      "type": "function"
    },
    {
      "inputs": [],
      "name": "getMyNFTs",
      "outputs": [
        {
          "components": [
            {
              "internalType": "uint256",
              "name": "tokenId",
              "type": "uint256"
            },
            {
              "internalType": "address payable",
              "name": "owner",
              "type": "address"
            },
            {
              "internalType": "address payable",
              "name": "seller",
              "type": "address"
            },
            {
              "internalType": "uint256",
              "name": "price",
              "type": "uint256"
            },
            {
              "internalType": "bool",
              "name": "currentlyListed",
              "type": "bool"
            }
          ],
          "internalType": "struct Gashapon_V1.ListedToken[]",
          "name": "",
          "type": "tuple[]"
        }
      ],
      "stateMutability": "view",
      "type": "function"
    },
    {
      "inputs": [
        {
          "internalType": "address",
          "name": "owner",
          "type": "address"
        },
        {
          "internalType": "address",
          "name": "operator",
          "type": "address"
        }
      ],
      "name": "isApprovedForAll",
      "outputs": [
        {
          "internalType": "bool",
          "name": "",
          "type": "bool"
        }
      ],
      "stateMutability": "view",
      "type": "function"
    },
    {
      "inputs": [],
      "name": "name",
      "outputs": [
        {
          "internalType": "string",
          "name": "",
          "type": "string"
        }
      ],
      "stateMutability": "view",
      "type": "function"
    },
    {
      "inputs": [
        {
          "internalType": "uint256",
          "name": "tokenId",
          "type": "uint256"
        }
      ],
      "name": "ownerOf",
      "outputs": [
        {
          "internalType": "address",
          "name": "",
          "type": "address"
        }
      ],
      "stateMutability": "view",
      "type": "function"
    },
    {
      "inputs": [
        {
          "internalType": "address",
          "name": "from",
          "type": "address"
        },
        {
          "internalType": "address",
          "name": "to",
          "type": "address"
        },
        {
          "internalType": "uint256",
          "name": "tokenId",
          "type": "uint256"
        }
      ],
      "name": "safeTransferFrom",
      "outputs": [],
      "stateMutability": "nonpayable",
      "type": "function"
    },
    {
      "inputs": [
        {
          "internalType": "address",
          "name": "from",
          "type": "address"
        },
        {
          "internalType": "address",
          "name": "to",
          "type": "address"
        },
        {
          "internalType": "uint256",
          "name": "tokenId",
          "type": "uint256"
        },
        {
          "internalType": "bytes",
          "name": "data",
          "type": "bytes"
        }
      ],
      "name": "safeTransferFrom",
      "outputs": [],
      "stateMutability": "nonpayable",
      "type": "function"
    },
    {
      "inputs": [
        {
          "internalType": "address",
          "name": "operator",
          "type": "address"
        },
        {
          "internalType": "bool",
          "name": "approved",
          "type": "bool"
        }
      ],
      "name": "setApprovalForAll",
      "outputs": [],
      "stateMutability": "nonpayable",
      "type": "function"
    },
    {
      "inputs": [
        {
          "internalType": "bytes4",
          "name": "interfaceId",
          "type": "bytes4"
        }
      ],
      "name": "supportsInterface",
      "outputs": [
        {
          "internalType": "bool",
          "name": "",
          "type": "bool"
        }
      ],
      "stateMutability": "view",
      "type": "function"
    },
    {
      "inputs": [],
      "name": "symbol",
      "outputs": [
        {
          "internalType": "string",
          "name": "",
          "type": "string"
        }
      ],
      "stateMutability": "view",
      "type": "function"
    },
    {
      "inputs": [
        {
          "internalType": "uint256",
          "name": "tokenId",
          "type": "uint256"
        }
      ],
      "name": "tokenURI",
      "outputs": [
        {
          "internalType": "string",
          "name": "",
          "type": "string"
        }
      ],
      "stateMutability": "view",
      "type": "function"
    },
    {
      "inputs": [
        {
          "internalType": "address",
          "name": "from",
          "type": "address"
        },
        {
          "internalType": "address",
          "name": "to",
          "type": "address"
        },
        {
          "internalType": "uint256",
          "name": "tokenId",
          "type": "uint256"
        }
      ],
      "name": "transferFrom",
      "outputs": [],
      "stateMutability": "nonpayable",
      "type": "function"
    },
    {
      "inputs": [
        {
          "internalType": "uint256",
          "name": "_listPrice",
          "type": "uint256"
        }
      ],
      "name": "updateListPrice",
      "outputs": [],
      "stateMutability": "payable",
      "type": "function"
    }
  ],
  "bytecode": "0x60806040526601c6bf52634000600a553480156200001c57600080fd5b50604080518082018252600b81526a4761736861706f6e5f563160a81b602080830191825283518085019094526005845264474153484160d81b9084015281519192916200006d916000916200009e565b508051620000839060019060208401906200009e565b5050600780546001600160a01b031916331790555062000181565b828054620000ac9062000144565b90600052602060002090601f016020900481019282620000d057600085556200011b565b82601f10620000eb57805160ff19168380011785556200011b565b828001600101855582156200011b579182015b828111156200011b578251825591602001919060010190620000fe565b50620001299291506200012d565b5090565b5b808211156200012957600081556001016200012e565b600181811c908216806200015957607f821691505b602082108114156200017b57634e487b7160e01b600052602260045260246000fd5b50919050565b611fef80620001916000396000f3fe6080604052600436106101355760003560e01c806395d89b41116100ab578063c322579c1161006f578063c322579c14610354578063c87b56dd14610367578063d1a88ae514610387578063e0391b091461039c578063e985e9c5146103b1578063ef2d1746146103fa57600080fd5b806395d89b41146102bf57806398c3df16146102d45780639b1225c414610301578063a22cb46514610314578063b88d4fde1461033457600080fd5b806342842e0e116100fd57806342842e0e1461020b578063629cb2e41461022b5780636352211e1461024d57806368f1945f1461026d57806370a082311461028c57806372b3b620146102ac57600080fd5b806301ffc9a71461013a57806306fdde031461016f578063081812fc14610191578063095ea7b3146101c957806323b872dd146101eb575b600080fd5b34801561014657600080fd5b5061015a610155366004611bfb565b61040f565b60405190151581526020015b60405180910390f35b34801561017b57600080fd5b50610184610461565b6040516101669190611dc7565b34801561019d57600080fd5b506101b16101ac366004611c89565b6104f3565b6040516001600160a01b039091168152602001610166565b3480156101d557600080fd5b506101e96101e4366004611bd2565b61051a565b005b3480156101f757600080fd5b506101e9610206366004611ae4565b610635565b34801561021757600080fd5b506101e9610226366004611ae4565b610666565b34801561023757600080fd5b50610240610681565b6040516101669190611d79565b34801561025957600080fd5b506101b1610268366004611c89565b6108c4565b34801561027957600080fd5b50600a545b604051908152602001610166565b34801561029857600080fd5b5061027e6102a7366004611a98565b610924565b61027e6102ba366004611c33565b6109aa565b3480156102cb57600080fd5b50610184610a98565b3480156102e057600080fd5b506102f46102ef366004611c89565b610aa7565b6040516101669190611e7a565b6101e961030f366004611c89565b610b11565b34801561032057600080fd5b506101e961032f366004611b98565b610c68565b34801561034057600080fd5b506101e961034f366004611b1f565b610c77565b6101e9610362366004611c89565b610ca9565b34801561037357600080fd5b50610184610382366004611c89565b610d14565b34801561039357600080fd5b506102f4610e25565b3480156103a857600080fd5b50610240610e9c565b3480156103bd57600080fd5b5061015a6103cc366004611ab2565b6001600160a01b03918216600090815260056020908152604080832093909416825291909152205460ff1690565b34801561040657600080fd5b5061027e610fe3565b60006001600160e01b031982166380ac58cd60e01b148061044057506001600160e01b03198216635b5e139f60e01b145b8061045b57506301ffc9a760e01b6001600160e01b03198316145b92915050565b60606000805461047090611ef7565b80601f016020809104026020016040519081016040528092919081815260200182805461049c90611ef7565b80156104e95780601f106104be576101008083540402835291602001916104e9565b820191906000526020600020905b8154815290600101906020018083116104cc57829003601f168201915b5050505050905090565b60006104fe82610ff3565b506000908152600460205260409020546001600160a01b031690565b6000610525826108c4565b9050806001600160a01b0316836001600160a01b031614156105985760405162461bcd60e51b815260206004820152602160248201527f4552433732313a20617070726f76616c20746f2063757272656e74206f776e656044820152603960f91b60648201526084015b60405180910390fd5b336001600160a01b03821614806105b457506105b481336103cc565b6106265760405162461bcd60e51b815260206004820152603e60248201527f4552433732313a20617070726f76652063616c6c6572206973206e6f7420746f60448201527f6b656e206f776e6572206e6f7220617070726f76656420666f7220616c6c0000606482015260840161058f565b6106308383611055565b505050565b61063f33826110c3565b61065b5760405162461bcd60e51b815260040161058f90611e2c565b610630838383611141565b61063083838360405180602001604052806000815250610c77565b6060600061068e60085490565b905060008080805b848110156107265733600b60006106ae846001611e88565b81526020810191909152604001600020600101546001600160a01b03161480610701575033600b60006106e2846001611e88565b81526020810191909152604001600020600201546001600160a01b0316145b1561071457610711600185611e88565b93505b8061071e81611f32565b915050610696565b5060008367ffffffffffffffff81111561075057634e487b7160e01b600052604160045260246000fd5b60405190808252806020026020018201604052801561078957816020015b61077661193f565b81526020019060019003908161076e5790505b50905060005b858110156108ba5733600b60006107a7846001611e88565b81526020810191909152604001600020600101546001600160a01b031614806107fa575033600b60006107db846001611e88565b81526020810191909152604001600020600201546001600160a01b0316145b156108a85761080a816001611e88565b6000818152600b6020908152604091829020825160a0810184528154815260018201546001600160a01b039081169382019390935260028201549092169282019290925260038201546060820152600482015460ff16151560808201528451929550909184908790811061088e57634e487b7160e01b600052603260045260246000fd5b60209081029190910101526108a4600186611e88565b9450505b806108b281611f32565b91505061078f565b5095945050505050565b6000818152600260205260408120546001600160a01b03168061045b5760405162461bcd60e51b8152602060048201526018602482015277115490cdcc8c4e881a5b9d985b1a59081d1bdad95b88125160421b604482015260640161058f565b60006001600160a01b03821661098e5760405162461bcd60e51b815260206004820152602960248201527f4552433732313a2061646472657373207a65726f206973206e6f7420612076616044820152683634b21037bbb732b960b91b606482015260840161058f565b506001600160a01b031660009081526003602052604090205490565b6000600a5434146109fd5760405162461bcd60e51b815260206004820152601960248201527f53656e6420656e6f75676820657468657220746f206c69737400000000000000604482015260640161058f565b60008211610a585760405162461bcd60e51b815260206004820152602260248201527f4d616b652073757265207468652070726963652069736e2774206e6567617469604482015261766560f01b606482015260840161058f565b610a66600880546001019055565b6000610a7160085490565b9050610a7d33826112dd565b610a8781856112f7565b610a918184611391565b9392505050565b60606001805461047090611ef7565b610aaf61193f565b506000908152600b6020908152604091829020825160a0810184528154815260018201546001600160a01b03908116938201939093526002820154909216928201929092526003820154606082015260049091015460ff161515608082015290565b6000818152600b6020526040902060030154348114610b985760405162461bcd60e51b815260206004820152603f60248201527f506c65617365207375626d6974207468652061736b696e67207072696365206660448201527f6f7220746865204e465420696e206f7264657220746f20707572636861736500606482015260840161058f565b6000828152600b602052604090206002810180546004909201805460ff191660011790556001600160a01b03198216339081179091556001600160a01b0390911690610be690309085611141565b610bf0308461051a565b600754600a546040516001600160a01b039092169181156108fc0291906000818181858888f19350505050158015610c2c573d6000803e3d6000fd5b506040516001600160a01b038216903480156108fc02916000818181858888f19350505050158015610c62573d6000803e3d6000fd5b50505050565b610c7333838361142e565b5050565b610c8133836110c3565b610c9d5760405162461bcd60e51b815260040161058f90611e2c565b610c62848484846114fd565b6007546001600160a01b03163314610d0f5760405162461bcd60e51b815260206004820152602360248201527f4f6e6c79206f776e65722063616e20757064617465206c697374696e6720707260448201526269636560e81b606482015260840161058f565b600a55565b6060610d1f82610ff3565b60008281526006602052604081208054610d3890611ef7565b80601f0160208091040260200160405190810160405280929190818152602001828054610d6490611ef7565b8015610db15780601f10610d8657610100808354040283529160200191610db1565b820191906000526020600020905b815481529060010190602001808311610d9457829003601f168201915b505050505090506000610dcf60408051602081019091526000815290565b9050805160001415610de2575092915050565b815115610e14578082604051602001610dfc929190611d0d565b60405160208183030381529060405292505050919050565b610e1d84611530565b949350505050565b610e2d61193f565b6000610e3860085490565b6000908152600b6020908152604091829020825160a0810184528154815260018201546001600160a01b03908116938201939093526002820154909216928201929092526003820154606082015260049091015460ff161515608082015292915050565b60606000610ea960085490565b905060008167ffffffffffffffff811115610ed457634e487b7160e01b600052604160045260246000fd5b604051908082528060200260200182016040528015610f0d57816020015b610efa61193f565b815260200190600190039081610ef25790505b5090506000805b83811015610fda576000610f29826001611e88565b6000818152600b6020908152604091829020825160a0810184528154815260018201546001600160a01b039081169382019390935260028201549092169282019290925260038201546060820152600482015460ff161515608082015286519293509091869086908110610fad57634e487b7160e01b600052603260045260246000fd5b6020908102919091010152610fc3600185611e88565b935050508080610fd290611f32565b915050610f14565b50909392505050565b6000610fee60085490565b905090565b6000818152600260205260409020546001600160a01b03166110525760405162461bcd60e51b8152602060048201526018602482015277115490cdcc8c4e881a5b9d985b1a59081d1bdad95b88125160421b604482015260640161058f565b50565b600081815260046020526040902080546001600160a01b0319166001600160a01b038416908117909155819061108a826108c4565b6001600160a01b03167f8c5be1e5ebec7d5bd14f71427d1e84f3dd0314c0f7b2291e5b200ac8c7c3b92560405160405180910390a45050565b6000806110cf836108c4565b9050806001600160a01b0316846001600160a01b0316148061111657506001600160a01b0380821660009081526005602090815260408083209388168352929052205460ff165b80610e1d5750836001600160a01b031661112f846104f3565b6001600160a01b031614949350505050565b826001600160a01b0316611154826108c4565b6001600160a01b0316146111b85760405162461bcd60e51b815260206004820152602560248201527f4552433732313a207472616e736665722066726f6d20696e636f72726563742060448201526437bbb732b960d91b606482015260840161058f565b6001600160a01b03821661121a5760405162461bcd60e51b8152602060048201526024808201527f4552433732313a207472616e7366657220746f20746865207a65726f206164646044820152637265737360e01b606482015260840161058f565b611225600082611055565b6001600160a01b038316600090815260036020526040812080546001929061124e908490611eb4565b90915550506001600160a01b038216600090815260036020526040812080546001929061127c908490611e88565b909155505060008181526002602052604080822080546001600160a01b0319166001600160a01b0386811691821790925591518493918716917fddf252ad1be2c89b69c2b068fc378daa952ba7f163c4a11628f55a4df523b3ef91a4505050565b610c738282604051806020016040528060008152506115a3565b6000828152600260205260409020546001600160a01b03166113725760405162461bcd60e51b815260206004820152602e60248201527f45524337323155524953746f726167653a2055524920736574206f66206e6f6e60448201526d32bc34b9ba32b73a103a37b5b2b760911b606482015260840161058f565b600082815260066020908152604090912082516106309284019061196d565b6040805160a081018252838152306020808301828152338486018181526060860188815260016080880181815260008c8152600b9097529890952096518755925193860180546001600160a01b039586166001600160a01b03199182161790915590516002870180549190951691161790925551600384015592516004909201805492151560ff1990931692909217909155610c73919084611141565b816001600160a01b0316836001600160a01b031614156114905760405162461bcd60e51b815260206004820152601960248201527f4552433732313a20617070726f766520746f2063616c6c657200000000000000604482015260640161058f565b6001600160a01b03838116600081815260056020908152604080832094871680845294825291829020805460ff191686151590811790915591519182527f17307eab39ab6107e8899845ad3d59bd9653f200f220920489ca2b5937696c31910160405180910390a3505050565b611508848484611141565b611514848484846115d6565b610c625760405162461bcd60e51b815260040161058f90611dda565b606061153b82610ff3565b600061155260408051602081019091526000815290565b905060008151116115725760405180602001604052806000815250610a91565b8061157c846116e3565b60405160200161158d929190611d0d565b6040516020818303038152906040529392505050565b6115ad83836117fd565b6115ba60008484846115d6565b6106305760405162461bcd60e51b815260040161058f90611dda565b60006001600160a01b0384163b156116d857604051630a85bd0160e11b81526001600160a01b0385169063150b7a029061161a903390899088908890600401611d3c565b602060405180830381600087803b15801561163457600080fd5b505af1925050508015611664575060408051601f3d908101601f1916820190925261166191810190611c17565b60015b6116be573d808015611692576040519150601f19603f3d011682016040523d82523d6000602084013e611697565b606091505b5080516116b65760405162461bcd60e51b815260040161058f90611dda565b805181602001fd5b6001600160e01b031916630a85bd0160e11b149050610e1d565b506001949350505050565b6060816117075750506040805180820190915260018152600360fc1b602082015290565b8160005b8115611731578061171b81611f32565b915061172a9050600a83611ea0565b915061170b565b60008167ffffffffffffffff81111561175a57634e487b7160e01b600052604160045260246000fd5b6040519080825280601f01601f191660200182016040528015611784576020820181803683370190505b5090505b8415610e1d57611799600183611eb4565b91506117a6600a86611f4d565b6117b1906030611e88565b60f81b8183815181106117d457634e487b7160e01b600052603260045260246000fd5b60200101906001600160f81b031916908160001a9053506117f6600a86611ea0565b9450611788565b6001600160a01b0382166118535760405162461bcd60e51b815260206004820181905260248201527f4552433732313a206d696e7420746f20746865207a65726f2061646472657373604482015260640161058f565b6000818152600260205260409020546001600160a01b0316156118b85760405162461bcd60e51b815260206004820152601c60248201527f4552433732313a20746f6b656e20616c7265616479206d696e74656400000000604482015260640161058f565b6001600160a01b03821660009081526003602052604081208054600192906118e1908490611e88565b909155505060008181526002602052604080822080546001600160a01b0319166001600160a01b03861690811790915590518392907fddf252ad1be2c89b69c2b068fc378daa952ba7f163c4a11628f55a4df523b3ef908290a45050565b6040805160a08101825260008082526020820181905291810182905260608101829052608081019190915290565b82805461197990611ef7565b90600052602060002090601f01602090048101928261199b57600085556119e1565b82601f106119b457805160ff19168380011785556119e1565b828001600101855582156119e1579182015b828111156119e15782518255916020019190600101906119c6565b506119ed9291506119f1565b5090565b5b808211156119ed57600081556001016119f2565b600067ffffffffffffffff80841115611a2157611a21611f8d565b604051601f8501601f19908116603f01168101908282118183101715611a4957611a49611f8d565b81604052809350858152868686011115611a6257600080fd5b858560208301376000602087830101525050509392505050565b80356001600160a01b0381168114611a9357600080fd5b919050565b600060208284031215611aa9578081fd5b610a9182611a7c565b60008060408385031215611ac4578081fd5b611acd83611a7c565b9150611adb60208401611a7c565b90509250929050565b600080600060608486031215611af8578081fd5b611b0184611a7c565b9250611b0f60208501611a7c565b9150604084013590509250925092565b60008060008060808587031215611b34578081fd5b611b3d85611a7c565b9350611b4b60208601611a7c565b925060408501359150606085013567ffffffffffffffff811115611b6d578182fd5b8501601f81018713611b7d578182fd5b611b8c87823560208401611a06565b91505092959194509250565b60008060408385031215611baa578182fd5b611bb383611a7c565b915060208301358015158114611bc7578182fd5b809150509250929050565b60008060408385031215611be4578182fd5b611bed83611a7c565b946020939093013593505050565b600060208284031215611c0c578081fd5b8135610a9181611fa3565b600060208284031215611c28578081fd5b8151610a9181611fa3565b60008060408385031215611c45578182fd5b823567ffffffffffffffff811115611c5b578283fd5b8301601f81018513611c6b578283fd5b611c7a85823560208401611a06565b95602094909401359450505050565b600060208284031215611c9a578081fd5b5035919050565b60008151808452611cb9816020860160208601611ecb565b601f01601f19169290920160200192915050565b805182526020808201516001600160a01b039081169184019190915260408083015190911690830152606080820151908301526080908101511515910152565b60008351611d1f818460208801611ecb565b835190830190611d33818360208801611ecb565b01949350505050565b6001600160a01b0385811682528416602082015260408101839052608060608201819052600090611d6f90830184611ca1565b9695505050505050565b6020808252825182820181905260009190848201906040850190845b81811015611dbb57611da8838551611ccd565b9284019260a09290920191600101611d95565b50909695505050505050565b602081526000610a916020830184611ca1565b60208082526032908201527f4552433732313a207472616e7366657220746f206e6f6e20455243373231526560408201527131b2b4bb32b91034b6b83632b6b2b73a32b960711b606082015260800190565b6020808252602e908201527f4552433732313a2063616c6c6572206973206e6f7420746f6b656e206f776e6560408201526d1c881b9bdc88185c1c1c9bdd995960921b606082015260800190565b60a0810161045b8284611ccd565b60008219821115611e9b57611e9b611f61565b500190565b600082611eaf57611eaf611f77565b500490565b600082821015611ec657611ec6611f61565b500390565b60005b83811015611ee6578181015183820152602001611ece565b83811115610c625750506000910152565b600181811c90821680611f0b57607f821691505b60208210811415611f2c57634e487b7160e01b600052602260045260246000fd5b50919050565b6000600019821415611f4657611f46611f61565b5060010190565b600082611f5c57611f5c611f77565b500690565b634e487b7160e01b600052601160045260246000fd5b634e487b7160e01b600052601260045260246000fd5b634e487b7160e01b600052604160045260246000fd5b6001600160e01b03198116811461105257600080fdfea264697066735822122011b4d8eb18d2832cbb0734bb8b80656f6b025594b3e51bb991d24997943fe68464736f6c63430008040033",
  "linkReferences": {},
  "deployedLinkReferences": {}
}